{
  "contractName": "SwanDAISale",
  "abi": [
    {
      "constant": true,
      "inputs": [],
      "name": "swanDAIHolder",
      "outputs": [
        {
          "name": "",
          "type": "address"
        }
      ],
      "payable": false,
      "stateMutability": "view",
      "type": "function",
      "signature": "0x11523c15"
    },
    {
      "constant": true,
      "inputs": [],
      "name": "usdc",
      "outputs": [
        {
          "name": "",
          "type": "address"
        }
      ],
      "payable": false,
      "stateMutability": "view",
      "type": "function",
      "signature": "0x3e413bee"
    },
    {
      "constant": true,
      "inputs": [],
      "name": "swanDAI",
      "outputs": [
        {
          "name": "",
          "type": "address"
        }
      ],
      "payable": false,
      "stateMutability": "view",
      "type": "function",
      "signature": "0xa6bb2ede"
    },
    {
      "inputs": [
        {
          "name": "usdcAddr",
          "type": "address"
        },
        {
          "name": "swanDAIAddr",
          "type": "address"
        },
        {
          "name": "_swanDAIHolder",
          "type": "address"
        }
      ],
      "payable": false,
      "stateMutability": "nonpayable",
      "type": "constructor",
      "signature": "constructor"
    },
    {
      "constant": false,
      "inputs": [
        {
          "name": "amount",
          "type": "uint256"
        }
      ],
      "name": "purchase",
      "outputs": [],
      "payable": false,
      "stateMutability": "nonpayable",
      "type": "function",
      "signature": "0xefef39a1"
    },
    {
      "constant": true,
      "inputs": [
        {
          "name": "amount",
          "type": "uint256"
        }
      ],
      "name": "getUSDCPurchaseAmount",
      "outputs": [
        {
          "name": "",
          "type": "uint256"
        }
      ],
      "payable": false,
      "stateMutability": "view",
      "type": "function",
      "signature": "0xd77977b5"
    }
  ],
  "bytecode": "0x608060405234801561001057600080fd5b506040516060806107198339810180604052606081101561003057600080fd5b81019080805190602001909291908051906020019092919080519060200190929190505050826000806101000a81548173ffffffffffffffffffffffffffffffffffffffff021916908373ffffffffffffffffffffffffffffffffffffffff16021790555081600160006101000a81548173ffffffffffffffffffffffffffffffffffffffff021916908373ffffffffffffffffffffffffffffffffffffffff16021790555080600260006101000a81548173ffffffffffffffffffffffffffffffffffffffff021916908373ffffffffffffffffffffffffffffffffffffffff1602179055505050506105f0806101296000396000f3fe608060405234801561001057600080fd5b5060043610610074576000357c01000000000000000000000000000000000000000000000000000000009004806311523c15146100795780633e413bee146100c3578063a6bb2ede1461010d578063d77977b514610157578063efef39a114610199575b600080fd5b6100816101c7565b604051808273ffffffffffffffffffffffffffffffffffffffff1673ffffffffffffffffffffffffffffffffffffffff16815260200191505060405180910390f35b6100cb6101ed565b604051808273ffffffffffffffffffffffffffffffffffffffff1673ffffffffffffffffffffffffffffffffffffffff16815260200191505060405180910390f35b610115610212565b604051808273ffffffffffffffffffffffffffffffffffffffff1673ffffffffffffffffffffffffffffffffffffffff16815260200191505060405180910390f35b6101836004803603602081101561016d57600080fd5b8101908080359060200190929190505050610238565b6040518082815260200191505060405180910390f35b6101c5600480360360208110156101af57600080fd5b8101908080359060200190929190505050610302565b005b600260009054906101000a900473ffffffffffffffffffffffffffffffffffffffff1681565b6000809054906101000a900473ffffffffffffffffffffffffffffffffffffffff1681565b600160009054906101000a900473ffffffffffffffffffffffffffffffffffffffff1681565b6000600160009054906101000a900473ffffffffffffffffffffffffffffffffffffffff1673ffffffffffffffffffffffffffffffffffffffff1663211339f86040518163ffffffff167c010000000000000000000000000000000000000000000000000000000002815260040160206040518083038186803b1580156102be57600080fd5b505afa1580156102d2573d6000803e3d6000fd5b505050506040513d60208110156102e857600080fd5b810190808051906020019092919050505082029050919050565b6000809054906101000a900473ffffffffffffffffffffffffffffffffffffffff1673ffffffffffffffffffffffffffffffffffffffff166323b872dd33600260009054906101000a900473ffffffffffffffffffffffffffffffffffffffff1661036c85610238565b6040518463ffffffff167c0100000000000000000000000000000000000000000000000000000000028152600401808473ffffffffffffffffffffffffffffffffffffffff1673ffffffffffffffffffffffffffffffffffffffff1681526020018373ffffffffffffffffffffffffffffffffffffffff1673ffffffffffffffffffffffffffffffffffffffff1681526020018281526020019350505050602060405180830381600087803b15801561042457600080fd5b505af1158015610438573d6000803e3d6000fd5b505050506040513d602081101561044e57600080fd5b810190808051906020019092919050505050600160009054906101000a900473ffffffffffffffffffffffffffffffffffffffff1673ffffffffffffffffffffffffffffffffffffffff166323b872dd600260009054906101000a900473ffffffffffffffffffffffffffffffffffffffff1633670de0b6b3a764000085026040518463ffffffff167c0100000000000000000000000000000000000000000000000000000000028152600401808473ffffffffffffffffffffffffffffffffffffffff1673ffffffffffffffffffffffffffffffffffffffff1681526020018373ffffffffffffffffffffffffffffffffffffffff1673ffffffffffffffffffffffffffffffffffffffff1681526020018281526020019350505050602060405180830381600087803b15801561058557600080fd5b505af1158015610599573d6000803e3d6000fd5b505050506040513d60208110156105af57600080fd5b8101908080519060200190929190505050505056fea165627a7a72305820ccf9990c41188980a3549cff7de821bd4be0bc9bbd16c340c72782f7167726370029",
  "source": "pragma solidity ^0.5.8;\n\nimport 'openzeppelin-solidity/contracts/math/SafeMath.sol';\nimport 'openzeppelin-solidity/contracts/token/ERC20/IERC20.sol';\n\ncontract SwanDAI is IERC20 {\n    function calcTokenValue() external view returns (uint256) {\n    }\n}\n\ncontract SwanDAISale {\n    using SafeMath for uint256;\n\n    IERC20 public usdc;\n    IERC20 public swanDAI;\n    address public swanDAIHolder;\n\n    constructor (address usdcAddr, address swanDAIAddr, address _swanDAIHolder) public {\n        usdc = IERC20(usdcAddr);\n        swanDAI = IERC20(swanDAIAddr);\n        swanDAIHolder = _swanDAIHolder;\n    }\n\n    function purchase(uint256 amount) external {\n        // TODO: add premium to cost\n        usdc.transferFrom(msg.sender, swanDAIHolder, getUSDCPurchaseAmount(amount)); \n        swanDAI.transferFrom(swanDAIHolder, msg.sender, amount * (10 ** 18));\n    }\n\n    function getUSDCPurchaseAmount(uint256 amount) public view returns (uint256) {\n        return amount * SwanDAI(address(swanDAI)).calcTokenValue();\n    }\n}\n",
  "sourcePath": "/home/opz/Projects/DeHedge/contracts/contracts/SwanDAISale.sol",
  "compiler": {
    "name": "solc",
    "version": "0.5.8+commit.23d335f2.Emscripten.clang"
  },
  "schemaVersion": "3.0.6",
  "updatedAt": "2019-09-08T08:44:09.149Z",
  "devdoc": {
    "methods": {}
  },
  "userdoc": {
    "methods": {}
  }
}